60804910010051234560500356AC          50000    5          30000    5          50000    5                                                                                                                                                                                                                                                                                                                                                                                                                          TESTING                  TESTING                  MEGMORE,CHENNAI                                                                                                                                                                 9876543215     044243625                        TESTING@GMAIL.COM                  06/02/1990009/07/2019000001    06CT          50000    5          30000    5          20000    5P031TESTING                  00000011234567891236082491001000990   N                                                                        
60804910010056543210500356AC          50000    5          30000    5          50000    5                                                                                                                                                                                                                                                                                                                                                                                                                          TEST001                  TEST001                  MEGMORE,CHENNAI                                                                                                                                                                 9876543211     044243621                        TEST001@GMAIL.COM                  07/04/1991009/07/2019000002    06CT          50000    5          30000    5          20000    5P031TEST001                  00000021234567823686082491001001006   N                   
60804910010051256340500356AC          50000    5          30000    5          50000    5                                                                                                                                                                                                                                                                                                                                                                                                                          TEST002                  TEST002                  MEGMORE,CHENNAI                                                                                                                                                                 9876543212     044243622                        TEST002@GMAIL.COM                  05/08/1995009/07/2019000003    06CT          50000    5          30000    5          20000    5P031TEST002                  00000031234566712976082491001001014   N                   
60804910010059765830500356AC          50000    5          30000    5          50000    5                                                                                                                                                                                                                                                                                                                                                                                                                          TEST003                  TEST003                  MEGMORE,CHENNAI                                                                                                                                                                 9876543213     044243623                        TEST003@GMAIL.COM                  01/03/1993009/07/2019000004    06CT          50000    5          30000    5          20000    5P031TEST003                  00000041234564632456082491001001022   N                   
60804910010056509430500356AC          50000    5          30000    5          50000    5                                                                                                                                                                                                                                                                                                                                                                                                                          TEST004                  TEST004                  MEGMORE,CHENNAI                                                                                                                                                                 9876543214     044243624                        TEST004@GMAIL.COM                  08/07/1997009/07/2019000005    06CT          50000    5          30000    5          20000    5P031TEST004                  00000051234567786236082491001001030   N                   